:100000000C9434000C9451000C9451000C94510049
:100010000C9451000C9451000C9451000C9453001A
:100020000C9451000C9451000C9451000C9451000C
:100030000C9451000C9451000C9451000C945100FC
:100040000C9451000C9451000C94C5000C94510078
:100050000C9451000C94AB000C9451000C94510082
:100060000C9451000C94510011241FBECFEFD8E026
:10007000DEBFCDBF11E0A0E0B1E0E2EEFAE002C0E9
:1000800005900D92A631B107D9F721E0A6E1B1E0C4
:1000900001C01D92A532B207E1F70E945F020C94E5
:1000A0006F050C9400001F920F920FB60F9211244F
:1000B0002F933F934F935F936F937F938F939F9370
:1000C000AF93BF93EF93FF93ECE7F0E08081807FE5
:1000D00080830E9435020E94B70160E080E00E94A8
:1000E000AF0180E091E00E94A30161E080E00E9406
:1000F000AF0120911E0130911F01A4E6B0E00E94E3
:100100007802DC01CB012AE0B695A79597958795F3
:100110002A95D1F7BF93AF939F938F9380E191E09E
:100120009F938F930E9406020F900F900F900F9055
:100130000F900F90FF91EF91BF91AF919F918F9191
:100140007F916F915F914F913F912F910F900FBED3
:100150000F901F9018958F939F9380917C0080FF44
:100160000BC0809178009091790090931D0180934D
:100170001C019F918F911895809178009091790042
:1001800090931F0180931E01F4CF8F938FB78F93AD
:100190008091C6008F3F11F08091C6008F918FBF74
:1001A0008F9118958530A1F404B407FE03C094B56F
:1001B0009F7794BD4BB121E030E0B90102C0660FDA
:1001C000771F8A95E2F7CB01809584238BB9089538
:1001D00004B405FEEFCF94B59F7DEBCF94E085305E
:1001E00009F097E021E030E001C0220F9A95EAF78C
:1001F0009BB1613059F4922B9BB9853059F404B40A
:1002000007FC03C084B5806884BD08952095292328
:100210002BB9F3CF04B405FCF8CF84B58062F4CFDA
:100220008AB1846F8AB95A9A089584B5836084BD6F
:1002300085B5846085BD08954FEF489F9001499F23
:10024000300D1124832F8695869587BD88BD08952E
:1002500061E085E00E94EE0061E086E00C94EE0033
:1002600060E085E00E94EE0060E086E00C94EE0025
:1002700085E00E94D20061E086E00C94EE0086E00A
:100280000E94D20061E085E00C94EE0085E00E94BF
:10029000D20086E00C94D20080FF0BC02C9A81FF24
:1002A0000AC02D9A82FF09C0449A83FF08C0459A6C
:1002B00008952C98F4CF2D98F5CF4498F6CF459813
:1002C000089583B1829581701D998260349984600C
:1002D000359988600895CF93249825983C983D9847
:1002E000299A5B9A0E946101C82FC295C07F5B98D2
:1002F0005B9A0E9461015B988C2BCF91089528989E
:100300000C946B01CF93C82F249A259A3C9A3D9A5E
:1003100029985B9A82958F700E944C015B985B9A3A
:100320008C2F0E944C015B980E947F0187FDFCCFBF
:10033000CF91089528980C948201289A0C948201F8
:10034000289A0C946B01CF93DF93EC018991811172
:1003500003C0DF91CF9108950E949D01F7CF629570
:10036000660F660F607C860F80680C949A0181E0AE
:100370000E949A018FE39FE10197F1F700C000000E
:10038000089582E00E949A018FE39FE10197F1F7BF
:1003900000C000000895CF93249A259A3C9A3D9A74
:1003A000539A209A219A8FE59AEE0197F1F700C0AF
:1003B000000028985B982998C3E05B9A83E00E942C
:1003C0004C015B988FE19EE40197F1F700C00000BB
:1003D000C150C111F2CF5B9A82E00E944C015B9840
:1003E0008FE99FE00197F1F700C0000088E20E94CA
:1003F0009A0188E00E949A0181E00E949A0186E0B9
:100400000E949A018CE0CF910C949A01CF93DF93D4
:10041000CDB7DEB761970FB6F894DEBF0FBECDBF84
:100420009E012A5E3F4FF901419151919F0161E187
:1004300070E0CE0101960E948702CE0101960E94D3
:10044000A30161960FB6F894DEBF0FBECDBFDF915A
:10045000CF910895ECE7F0E0808180648083EAE743
:10046000F0E080818F6880830895EAE7F0E0808182
:10047000806480830895239A229810928000E1E896
:10048000F0E0808182648083EFE6F0E0808180622A
:10049000808308952B9A85E38A95F1F700002B98C5
:1004A000809120018823E1F3809121019091220124
:1004B000809123019091240180E090E008950E94B2
:1004C000CB010E942A021092B0001092B10010924B
:1004D000B2008FEF8093B3008091B100876080936A
:1004E000B100809170008260809370007894FFCF9B
:1004F000A29FB001B39FC001A39F700D811D112465
:10050000911DB29F700D811D1124911D0895AEE0C3
:10051000B0E0EDE8F2E00C9446058C01F62FE72FF1
:10052000BA01A90186E08C831A8309838F2F9E2F3D
:10053000813020E8920710F080E090E801979E83D8
:100540008D83CE0101960E94B7024D815E8157FDD9
:100550000AC02F813885421753070CF49A01020F05
:10056000131FF80110822E96E4E00C946205ABE0B4
:10057000B0E0EDEBF2E00C943B056C017B018A01ED
:10058000FC0117821682838181FFCBC19AE0592E2C
:10059000F6012381F70123FD859123FF81917F01DE
:1005A000882309F45BC1853239F423FD959123FF3B
:1005B00091917F01953229F4B60190E00E94AA043E
:1005C000E7CF912C612C712CFFE1F71540F19B32A4
:1005D000D9F058F49032D1F09332F1F09E3299F57F
:1005E00076FC3CC1689476F806C09D3291F0903359
:1005F000C1F4689470F8F70123FD959123FF919160
:100600007F019111E1CF26C0689471F8689472F867
:10061000F2CF689473F8EFCF689474F8ECCF77FC5E
:1006200019C080ED890F8A30C8F676FE05C0959C0A
:10063000800D1124982EDFCF659C800D1124682E2B
:10064000689475F8D8CF9C3619F4689477F8D3CFAE
:10065000983689F2892F8F7D8554833008F488C0BD
:10066000933609F4A6C0933709F4A9C0933509F469
:10067000B5C0943619F0993609F0DFC0F80177FE5D
:10068000D5C061917191819191918F01272D2F7624
:10069000822E97FF09C090958095709561957F4F48
:1006A0008F4F9F4F689487F82AE030E0AE014F5F8C
:1006B0005F4F5A010E94DA048A19A82EBA2C782CAE
:1006C00086FE0CC0E89470F8A91440F484FE05C0BE
:1006D00082FC03C0F82DFE7E7F2EB92C74FEFAC07A
:1006E000FE01EA0DF11D8081803309F0ECC0272D59
:1006F000297E722E73FC0EC070FEFBC09A2CB614BD
:1007000018F4960C9B18B62C862D8B196B1408F4D4
:1007100080E0B80EB61408F0EEC06B1874FEEDC0A1
:10072000B60180E390E00E94AA0472FE09C088E549
:1007300090E071FC02C088E790E0B6010E94AA0434
:10074000A91408F4E7C0AA94B12C4FEFA41AB40A74
:10075000CE0101964C01A80EB91EF50182915F01F0
:10076000B60190E00E94AA048A149B04B1F717C056
:100770000C5F1F4F8FE3898388248394912CAE01F3
:100780004F5F5F4F5A01E89477F873FC05C0862DE0
:1007900090E08816990698F181149104B9F56620C5
:1007A00009F4F6CEB60180E290E00E94AA046A94B1
:1007B000F6CFF801808189830E5F1F4FDDCFF801EE
:1007C000A190B1908F01692D70E076FC02C06FEFAF
:1007D0007FEFC5010E949F044C01D5CFF801A19085
:1007E000B1908F01692D70E076FC02C06FEF7FEF52
:1007F000C5010E9494044C01689477F8C6CFB601F5
:1008000080E290E00E94AA046A94C1CFF50177FCCF
:10081000859177FE81915F01B60190E00E94AA0464
:1008200061106A94F1E08F1A9108B6CF61917191CD
:10083000072E000C880B990B28CF872CE89484F89E
:100840002AE030E0953739F1572D597F852E9037C2
:10085000A9F058F49835A9F09F36D9F0F6018681B1
:1008600097812B96EFE00C9457059837B9F784FEE3
:1008700002C0689482F820E130E00DC0689484F8EA
:10088000F6CF74FE03C0852F8660882E20E132E00B
:1008900002C028E030E0F80187FE10C0619171913C
:1008A000819191918F01FE0131965F01AF010E940C
:1008B000DA048A19A82EE89487F800CF6191719123
:1008C00080E090E0EFCF72FC02C0B39413CFB394FA
:1008D000B39410CF872D8678882309F40BCFF5CFFA
:1008E000B60180E290E00E94AA0483948614C0F3CB
:1008F0000BCF8B2CFBCF612C11CF872D86788823D3
:1009000009F41ECF80E271FC8BE277FC8DE2B60128
:1009100090E014CFB60180E390E00E94AA049A947C
:100920000FCF8FEF9FEF9DCFFC010590615070407E
:100930000110D8F7809590958E0F9F1F0895FC01A8
:100940006150704001900110D8F7809590958E0FFE
:100950009F1F08950F931F93CF93DF93182F092F95
:10096000EB018B8181FD09C01FEF0FEF812F902FCD
:10097000DF91CF911F910F91089582FF14C02E81B6
:100980003F818C819D81281739073CF4E881F981EA
:10099000CF0101969983888310838E819F81019670
:1009A0009F838E83E3CFE885F985812F0995892B75
:1009B000A1F3DACFFA01AA27283051F1203181F1D1
:1009C000E8946F936E7F6E5F7F4F8F4F9F4FAF4F57
:1009D000B1E03ED0B4E03CD0670F781F891F9A1F6A
:1009E000A11D680F791F8A1F911DA11D6A0F711D1E
:1009F000811D911DA11D20D009F468943F912AE02A
:100A0000269F11243019305D3193DEF6CF01089511
:100A1000462F4770405D4193B3E00FD0C9F7F6CF42
:100A2000462F4F70405D4A3318F0495D31FD40520A
:100A3000419302D0A9F7EACFB4E0A69597958795A0
:100A400077956795BA95C9F700976105710508957F
:100A50009B01AC010A2E069457954795379527952B
:100A6000BA95C9F7620F731F841F951FA01D0895C3
:100A70002F923F924F925F926F927F928F929F92AE
:100A8000AF92BF92CF92DF92EF92FF920F931F939C
:100A9000CF93DF93CDB7DEB7CA1BDB0B0FB6F8944D
:100AA000DEBF0FBECDBF09942A88398848885F848D
:100AB0006E847D848C849B84AA84B984C884DF80FE
:100AC000EE80FD800C811B81AA81B981CE0FD11DE2
:100AD0000FB6F894DEBF0FBECDBFED010895F894B8
:020AE000FFCF46
:100AE20050574D2064757479206379636C653A00C0
:060AF2002564202525000B
:00000001FF
