:100000000C943C000C9459000C9459000C94590029
:100010000C9459000C9459000C9459000C94F20063
:100020000C9459000C9459000C94D3010C94590071
:100030000C9459000C9459000C9459000C945900DC
:100040000C9459000C9459000C9484010C945900A0
:100050000C9459000C9447010C9459000C945900CD
:100060000C9459000C945900C001A601A901AC01DF
:10007000AF01B201B601BA0111241FBECFEFD8E023
:10008000DEBFCDBF11E0A0E0B1E0EAE6FDE002C0D6
:1000900005900D92A434B107D9F721E0A4E4B1E0B2
:1000A00001C01D92A035B207E1F70E9475030C94C0
:1000B000B3060C9400000E94DB0260E080E00E9426
:1000C000D40282E091E00E94C80261E080E00E94D8
:1000D000D4022091490130914A01A5E0B0E00E948C
:1000E000B003DC01CB012AE0B695A79597958795DB
:1000F0002A95D1F7BF93AF939F938F938FE091E0B1
:100100009F938F930E9429030F900F900F900F9051
:100110000F900F9008950E94DB0260E080E00E9443
:10012000D40285E191E00E94C80261E080E00E9473
:10013000D40220914B0130914C01A4E6B0E00E9422
:10014000B003DC01CB012AE0B695A795979587957A
:100150002A95D1F7BF93AF939F938F9385E291E058
:100160009F938F930E9429030F900F900F900F90F1
:100170000F900F9008950E94DB0260E080E00E94E3
:10018000D4028BE291E00E94C80261E080E00E940C
:10019000D40280914E0190914F014D966AE370E038
:1001A0000E94960370934801609347018091470134
:1001B000909148018536910520F085E391E00C94FB
:1001C000C80280914701909148019F938F938DE3DE
:1001D00091E09F938F930E9429030F900F900F90AF
:1001E0000F9008951F920F920FB60F9211242F9324
:1001F0003F934F935F936F937F938F939F93AF93AF
:10020000BF93EF93FF9380910101833041F480917C
:100210007C00807F80937C000E9458031BC08091EB
:100220000101843019F40E946E0314C08091010111
:10023000823081F480914601853319F40E945B007D
:1002400009C0863319F40E948B0004C0873311F46F
:100250000E94BB00809101018F5F8093010180911A
:100260000101853018F081E080930101FF91EF9149
:10027000BF91AF919F918F917F916F915F914F91BE
:100280003F912F910F900FBE0F901F9018951F92C6
:100290000F920FB60F9211242F933F934F935F93BA
:1002A0006F937F938F939F93AF93BF93EF93FF933E
:1002B00080917C0080FF09C0809178009091790046
:1002C00090934A01809349010EC0809178009091EB
:1002D000790090934C0180934B0180914B01909158
:1002E0004C010E943802FF91EF91BF91AF919F9115
:1002F0008F917F916F915F914F913F912F910F90CF
:100300000FBE0F901F9018951F920F920FB60F926D
:1003100011242F933F934F935F936F937F938F930A
:100320009F93AF93BF93EF93FF938091C600809309
:100330000001E09100018E2F90E0FC01F097E83081
:10034000F105F0F4EC5CFF4F0C94AA030E94490203
:1003500019C00E94520216C00E945B0213C00E9484
:10036000610210C00E945B0085E307C00E948B0001
:1003700086E303C00E94BB0087E38093460102C06E
:100380000E946702FF91EF91BF91AF919F918F9172
:100390007F916F915F914F913F912F910F900FBE81
:1003A0000F901F9018951F920F920FB60F92112465
:1003B0002F933F938F939F938091810086FD13C06D
:1003C00080918600909187009695879520914401B1
:1003D00030914501821B930B90934F0180934E0106
:1003E00081E080934D0180918600909187009695E1
:1003F000879590934501809344019091810080E41A
:100400008927809381009F918F913F912F910F9029
:100410000FBE0F901F90189587E68093C40010922E
:10042000C500E1ECF0E0808188698083E2ECF0E0D7
:1004300080818660808308959091C00095FFFCCFF5
:100440008093C60008958091C00087FF03C080910B
:10045000C60008958FEF08958AB1846F8AB95A9AB9
:10046000089584B5836084BD85B5846085BD089595
:100470009C01AFEFB0E00E94B003DC01CB012AE0A9
:10048000B695A795979587952A95D1F787BD88BD8D
:10049000089584B5806884BD5C9884B5806284BD0D
:1004A0005F98089584B5806884BD5C9A84B5806245
:1004B00084BD5F9A08950E94490284B58F7D84BDF2
:1004C00008950E94490284B58F7784BD089584B54C
:1004D0008F7784BD84B58F7D84BD089583B1829567
:1004E00081701D998260349984603599886008957F
:1004F000CF93DF93249825983C983D98299A5B9A4E
:100500000E946E0290E1899FE00111245B985B9A42
:100510000E946E025B988C2BDF91CF91089580FF33
:1005200002C02C9A01C02C9881FF02C02D9A01C0F4
:100530002D9882FF02C0449A01C0449883FF02C0F4
:10054000459A0895459808952A980C947802CF9377
:10055000C82F249A259A3C9A3D9A29985B9A8295AD
:100560008F700E948F025B985B9A8C2F0E948F0283
:100570005B980E94A40287FDFCCFCF9108952A9832
:100580000C94A7022A9A0C94A7022A9A0C94780237
:10059000CF93DF93EC018991882319F00E94C20266
:1005A000FACFDF91CF91089590E4699F800D1124D7
:1005B00080680C94BF0281E00E94BF028FE39FE13C
:1005C0000197F1F700C00000089582E00E94BF0289
:1005D0008FE39FE10197F1F700C000000895CF93EA
:1005E000249A259A3C9A3D9A539A229A219A8FE509
:1005F0009AEE0197F1F700C000002A985B982998BD
:10060000C3E05B9A83E00E948F025B988FE19EE4D7
:100610000197F1F700C00000C15099F75B9A82E0A2
:100620000E948F025B988FE99FE00197F1F700C06D
:10063000000088E20E94BF0288E00E94BF0281E0C1
:100640000E94BF0286E00E94BF028CE0CF910C9412
:10065000BF02CF93DF93CDB7DEB761970FB6F894A3
:10066000DEBF0FBECDBF9E012A5E3F4FF901419113
:1006700051919F0161E170E0CE0101960E94BF039C
:10068000CE0101960E94C80261960FB6F894DEBFB3
:100690000FBECDBFDF91CF910895ECE7F0E08081F0
:1006A00080648083EAE7F0E080818F68808308952A
:1006B000EAE7F0E08081806480830895239A20989F
:1006C000289A10928000E1E8F0E0808182648083C3
:1006D000EFE6F0E080818062808308952B9A85E3C5
:1006E0008A95F1F700002B9808950E94EF020E946E
:1006F0002C020E9431020E945E030E944D030E9460
:100700000C021092B0001092B1001092B2008FEF64
:100710008093B3008091B10087608093B100809195
:1007200070008260809370007894FFCFAA1BBB1B7F
:1007300051E107C0AA1FBB1FA617B70710F0A61BE1
:10074000B70B881F991F5A95A9F780959095BC0102
:10075000CD010895EE0FFF1F0590F491E02D09944F
:10076000A29FB001B39FC001A39F700D811D1124F2
:10077000911DB29F700D811D1124911D0895AEE051
:10078000B0E0E5ECF3E00C948A068C01FA0186E017
:100790008C831A83098377FF02C060E070E8CB0185
:1007A00001979E838D83A901BF01CE0101960E940E
:1007B000EB034D815E8157FD0AC02F8138854217BA
:1007C00053070CF49A01F801E20FF31F10822E96E2
:1007D000E4E00C94A606ABE0B0E0E1EFF3E00C94AB
:1007E0007C066C017B018A01FC01178216828381E1
:1007F00081FFCCC1CE0101963C01F6019381F70146
:1008000093FD859193FF81917F01882309F4BAC1FB
:10081000853239F493FD859193FF81917F01853273
:1008200029F4B60190E00E94E205E7CF912C212C3B
:10083000312CFFE1F315D8F08B3279F038F48032A7
:1008400079F08332A1F4232D20611DC08D3261F037
:10085000803369F4232D216016C0832D8260382EE9
:10086000E32DE4603E2E2AC0F32DF8601DC037FC56
:100870002DC020ED280F2A3040F08E32B9F436FC1E
:1008800081C1232D2064322E19C036FE06C08AE0B5
:10089000989E200D1124922E11C0EAE02E9E200D6C
:1008A0001124222EF32DF0623F2E08C08C3621F445
:1008B000832D8068382E02C0883641F4F70193FDFD
:1008C000859193FF81917F018111B3CF982F9F7DF7
:1008D0009554933028F40C5F1F4F9FE399830DC00C
:1008E000833631F0833771F0833509F059C021C068
:1008F000F801808189830E5F1F4F88248394912C97
:10090000530113C02801F2E04F0E511CF801A080E2
:10091000B18036FE03C0692D70E002C06FEF7FEF3B
:10092000C5010E94D7054C018201F32DFF773F2EB0
:1009300016C0280122E0420E511CF801A080B180AF
:1009400036FE03C0692D70E002C06FEF7FEFC50176
:100950000E94CC054C01F32DF0683F2E820133FC40
:100960001BC0822D90E088169906B0F4B60180E293
:1009700090E00E94E2052A94F4CFF50137FC8591BE
:1009800037FE81915F01B60190E00E94E2052110DF
:100990002A9421E0821A91088114910471F7E8C029
:1009A000843611F0893641F5F80137FE07C06081C1
:1009B0007181828193810C5F1F4F08C060817181BA
:1009C000072E000C880B990B0E5F1F4FF32DFF763F
:1009D0003F2E97FF09C090958095709561957F4F48
:1009E0008F4F9F4FF0683F2E2AE030E0A3010E9416
:1009F0001E06882E861845C0853731F4232D2F7E9C
:100A0000B22E2AE030E025C0932D997FB92E8F3683
:100A1000C1F018F4883579F0B5C0803719F08837FF
:100A200021F0B0C0E92FE061BE2EB4FE0DC0FB2D59
:100A3000F460BF2E09C034FE0AC0292F2660B22EF2
:100A400006C028E030E005C020E130E002C020E12F
:100A500032E0F801B7FE07C0608171818281938125
:100A60000C5F1F4F06C06081718180E090E00E5FD7
:100A70001F4FA3010E941E06882E8618FB2DFF77AC
:100A80003F2E36FE0DC0232D2E7FA22E891458F442
:100A900034FE0BC032FC09C0832D8E7EA82E05C00B
:100AA000B82CA32C03C0B82C01C0B92CA4FE0FC0D5
:100AB000FE01E80DF11D8081803321F49A2D997E8D
:100AC000A92E09C0A2FE06C0B394B39404C08A2D17
:100AD000867809F0B394A3FC11C0A0FE06C0B2143E
:100AE00088F4280C922C9B180EC0B21460F4B60146
:100AF00080E290E00E94E205B394F7CFB21418F4BC
:100B00002B1802C0982C212CA4FE10C0B60180E343
:100B100090E00E94E205A2FE17C0A1FC03C088E796
:100B200090E002C088E590E0B6010CC08A2D86787E
:100B300059F0A1FE02C08BE201C080E2A7FC8DE269
:100B4000B60190E00E94E205891438F4B60180E312
:100B500090E00E94E2059A94F7CF8A94F301E80DA1
:100B6000F11D8081B60190E00E94E2058110F5CF71
:100B7000222009F442CEB60180E290E00E94E20514
:100B80002A94F6CFF6018681978102C08FEF9FEFFE
:100B90002B96E2E10C949806FC01059061507040A0
:100BA0000110D8F7809590958E0F9F1F0895FC0136
:100BB0006150704001900110D8F7809590958E0F8C
:100BC0009F1F08950F931F93CF93DF93FB01238102
:100BD00021FD03C08FEF9FEF2CC022FF16C046817E
:100BE0005781248135814217530744F4A081B18194
:100BF0009D012F5F3F4F318320838C932681378166
:100C00002F5F3F4F3783268314C08B01EC01FB011C
:100C10000084F185E02D0995892BE1F6D80116961F
:100C20008D919C911797019617969C938E9316978A
:100C3000CE01DF91CF911F910F910895FA01AA275C
:100C4000283051F1203181F1E8946F936E7F6E5F0F
:100C50007F4F8F4F9F4FAF4FB1E03ED0B4E03CD0BD
:100C6000670F781F891F9A1FA11D680F791F8A1FA0
:100C7000911DA11D6A0F711D811D911DA11D20D007
:100C800009F468943F912AE0269F11243019305DC1
:100C90003193DEF6CF010895462F4770405D4193B2
:100CA000B3E00FD0C9F7F6CF462F4F70405D4A33FF
:100CB00018F0495D31FD4052419302D0A9F7EACFC7
:100CC000B4E0A6959795879577956795BA95C9F7F6
:100CD00000976105710508959B01AC010A2E0694E9
:100CE0005795479537952795BA95C9F7620F731FA2
:100CF000841F951FA01D08952F923F924F925F92DF
:100D00006F927F928F929F92AF92BF92CF92DF921B
:100D1000EF92FF920F931F93CF93DF93CDB7DEB780
:100D2000CA1BDB0B0FB6F894DEBF0FBECDBF099414
:100D30002A88398848885F846E847D848C849B846B
:100D4000AA84B984C884DF80EE80FD800C811B8179
:100D5000AA81B981CE0FD11D0FB6F894DEBF0FBEA8
:0A0D6000CDBFED010895F894FFCF18
:100D6A00300154656D70657261747572653A00255B
:100D7A0064202A430050574D2064757479206379A2
:100D8A00636C653A00256420252500446973746103
:100D9A006E63653A003130302B20636D0025642084
:040DAA00636D000075
:00000001FF
