:100000000C9434000C943E000C943E000C943E0082
:100010000C943E000C943E000C943E000C943E0068
:100020000C943E000C943E000C943E000C943E0058
:100030000C943E000C943E000C943E000C943E0048
:100040000C943E000C943E000C943E000C943E0038
:100050000C943E000C943E000C943E000C943E0028
:100060000C943E000C943E0011241FBECFEFD8E04C
:10007000DEBFCDBF0E94F5000C945C010C94000023
:100080008530A1F404B407FE03C094B59F7794BDF6
:100090004BB121E030E0B90102C0660F771F8A95AD
:1000A000E2F7CB01809584238BB9089504B405FE53
:1000B000EFCF94B59F7DEBCF94E0853009F097E0CA
:1000C00021E030E001C0220F9A95EAF79BB1613040
:1000D00059F4922B9BB9853059F404B407FC03C042
:1000E00084B5806884BD0895209529232BB9F3CF6A
:1000F00004B405FCF8CF84B58062F4CF8AB1846F74
:100100008AB95A9A089584B5836084BD85B58460A0
:1001100085BD0895853608F084E62FEF829FC001E3
:10012000112464E670E00E94340167BD68BD089543
:1001300061E085E00E945C0061E086E00C945C0078
:1001400060E085E00E945C0060E086E00C945C006A
:1001500085E00E94400061E086E00C945C0086E04F
:100160000E94400061E085E00C945C0085E00E9404
:10017000400086E00C94400098E0229A2A9880FF84
:100180000FC020E22A95F1F72A9AEFEFF0E03197BD
:10019000F1F700C00000869591509111EECF0895BF
:1001A000EFEEF0E03197F1F700C000002A9AF5E396
:1001B000FA95F1F7EFCF98E080E08695229A2A9899
:1001C00020E22A95F1F72A9AE0E3EA95F1F72298DE
:1001D00023B1EBEDF0E03197F1F700C0000022FD14
:1001E000806891509111E9CF08950E947E000E948D
:1001F00083008CE30E948A000E9498002FEF89E61A
:1002000098E1215080409040E1F700C000000E943A
:10021000A0002FEF89E698E1215080409040E1F75F
:1002200000C000000E94AF002FEF89E698E1215046
:1002300080409040E1F700C000000E94A8002FEF2E
:1002400089E698E1215080409040E1F700C000002D
:100250000E94B6002FEF89E698E12150804090403F
:10026000E1F700C00000C8CF97FB072E16F40094FA
:1002700007D077FD09D00E94480107FC05D03EF465
:10028000909581959F4F0895709561957F4F089542
:10029000AA1BBB1B51E107C0AA1FBB1FA617B707AC
:1002A00010F0A61BB70B881F991F5A95A9F78095C8
:0C02B0009095BC01CD010895F894FFCF9B
:00000001FF
